{
  "_format": "hh-sol-artifact-1",
  "contractName": "EthwitterPortal",
  "sourceName": "contracts/EthwitterPortal.sol",
  "abi": [
    {
      "inputs": [],
      "stateMutability": "nonpayable",
      "type": "constructor"
    },
    {
      "anonymous": false,
      "inputs": [
        {
          "indexed": true,
          "internalType": "address",
          "name": "from",
          "type": "address"
        },
        {
          "indexed": false,
          "internalType": "uint256",
          "name": "timestamp",
          "type": "uint256"
        },
        {
          "indexed": false,
          "internalType": "string",
          "name": "message",
          "type": "string"
        }
      ],
      "name": "NewEthweet",
      "type": "event"
    },
    {
      "inputs": [
        {
          "internalType": "string",
          "name": "_message",
          "type": "string"
        }
      ],
      "name": "ethweet",
      "outputs": [],
      "stateMutability": "nonpayable",
      "type": "function"
    },
    {
      "inputs": [
        {
          "internalType": "uint256",
          "name": "",
          "type": "uint256"
        }
      ],
      "name": "ethweetAddresses",
      "outputs": [
        {
          "internalType": "address",
          "name": "",
          "type": "address"
        }
      ],
      "stateMutability": "view",
      "type": "function"
    },
    {
      "inputs": [],
      "name": "getAllEthweets",
      "outputs": [
        {
          "components": [
            {
              "internalType": "address",
              "name": "waver",
              "type": "address"
            },
            {
              "internalType": "string",
              "name": "message",
              "type": "string"
            },
            {
              "internalType": "uint256",
              "name": "timestamp",
              "type": "uint256"
            }
          ],
          "internalType": "struct EthwitterPortal.Ethweet[]",
          "name": "",
          "type": "tuple[]"
        }
      ],
      "stateMutability": "view",
      "type": "function"
    },
    {
      "inputs": [],
      "name": "getEthweetAddresses",
      "outputs": [
        {
          "internalType": "address[]",
          "name": "",
          "type": "address[]"
        }
      ],
      "stateMutability": "view",
      "type": "function"
    },
    {
      "inputs": [],
      "name": "getTotalEthweets",
      "outputs": [
        {
          "internalType": "uint256",
          "name": "",
          "type": "uint256"
        }
      ],
      "stateMutability": "view",
      "type": "function"
    }
  ],
  "bytecode": "0x60806040523480156200001157600080fd5b5062000041604051806060016040528060218152602001620012d5602191396200004760201b620005db1760201c565b620001db565b620000e7816040516024016200005e919062000154565b6040516020818303038152906040527f41304fac000000000000000000000000000000000000000000000000000000007bffffffffffffffffffffffffffffffffffffffffffffffffffffffff19166020820180517bffffffffffffffffffffffffffffffffffffffffffffffffffffffff8381831617835250505050620000ea60201b60201c565b50565b60008151905060006a636f6e736f6c652e6c6f679050602083016000808483855afa5050505050565b6000620001208262000178565b6200012c818562000183565b93506200013e81856020860162000194565b6200014981620001ca565b840191505092915050565b6000602082019050818103600083015262000170818462000113565b905092915050565b600081519050919050565b600082825260208201905092915050565b60005b83811015620001b457808201518184015260208101905062000197565b83811115620001c4576000848401525b50505050565b6000601f19601f8301169050919050565b6110ea80620001eb6000396000f3fe608060405234801561001057600080fd5b50600436106100575760003560e01c806347ecb79c1461005c57806355c2789d1461007a578063c8ef52ac14610096578063dcefa050146100c6578063f6d86b3c146100e4575b600080fd5b610064610102565b6040516100719190610c35565b60405180910390f35b610094600480360381019061008f9190610991565b610253565b005b6100b060048036038101906100ab91906109d2565b610411565b6040516100bd9190610bf8565b60405180910390f35b6100ce610450565b6040516100db9190610c13565b60405180910390f35b6100ec610590565b6040516100f99190610cee565b60405180910390f35b60606002805480602002602001604051908101604052809291908181526020016000905b8282101561024a57838290600052602060002090600302016040518060600160405290816000820160009054906101000a900473ffffffffffffffffffffffffffffffffffffffff1673ffffffffffffffffffffffffffffffffffffffff1673ffffffffffffffffffffffffffffffffffffffff1681526020016001820180546101af90610f02565b80601f01602080910402602001604051908101604052809291908181526020018280546101db90610f02565b80156102285780601f106101fd57610100808354040283529160200191610228565b820191906000526020600020905b81548152906001019060200180831161020b57829003601f168201915b5050505050815260200160028201548152505081526020019060010190610126565b50505050905090565b60016000808282546102659190610e2e565b925050819055506001339080600181540180825580915050600190039060005260206000200160009091909190916101000a81548173ffffffffffffffffffffffffffffffffffffffff021916908373ffffffffffffffffffffffffffffffffffffffff1602179055506102f26040518060600160405280602b8152602001611064602b91393383610674565b600260405180606001604052803373ffffffffffffffffffffffffffffffffffffffff16815260200183815260200142815250908060018154018082558091505060019003906000526020600020906003020160009091909190915060008201518160000160006101000a81548173ffffffffffffffffffffffffffffffffffffffff021916908373ffffffffffffffffffffffffffffffffffffffff16021790555060208201518160010190805190602001906103b1929190610871565b506040820151816002015550503373ffffffffffffffffffffffffffffffffffffffff167fb7a7092d0fcee7d36e81accafa9f30cb7c17ac197ce9de213e2384e32e3122c34283604051610406929190610d09565b60405180910390a250565b6001818154811061042157600080fd5b906000526020600020016000915054906101000a900473ffffffffffffffffffffffffffffffffffffffff1681565b606061047360405180606001604052806026815260200161108f602691396105db565b60005b600180549050811015610503576104f0600182815481106104c0577f4e487b7100000000000000000000000000000000000000000000000000000000600052603260045260246000fd5b9060005260206000200160009054906101000a900473ffffffffffffffffffffffffffffffffffffffff16610713565b80806104fb90610f65565b915050610476565b50600180548060200260200160405190810160405280929190818152602001828054801561058657602002820191906000526020600020905b8160009054906101000a900473ffffffffffffffffffffffffffffffffffffffff1673ffffffffffffffffffffffffffffffffffffffff168152602001906001019080831161053c575b5050505050905090565b60006105d36040518060400160405280601a81526020017f5765206861766520256420746f74616c204554487765657473210000000000008152506000546107ac565b600054905090565b610671816040516024016105ef9190610c57565b6040516020818303038152906040527f41304fac000000000000000000000000000000000000000000000000000000007bffffffffffffffffffffffffffffffffffffffffffffffffffffffff19166020820180517bffffffffffffffffffffffffffffffffffffffffffffffffffffffff8381831617835250505050610848565b50565b61070e83838360405160240161068c93929190610c79565b6040516020818303038152906040527fe0e9ad4f000000000000000000000000000000000000000000000000000000007bffffffffffffffffffffffffffffffffffffffffffffffffffffffff19166020820180517bffffffffffffffffffffffffffffffffffffffffffffffffffffffff8381831617835250505050610848565b505050565b6107a9816040516024016107279190610bf8565b6040516020818303038152906040527f2c2ecbc2000000000000000000000000000000000000000000000000000000007bffffffffffffffffffffffffffffffffffffffffffffffffffffffff19166020820180517bffffffffffffffffffffffffffffffffffffffffffffffffffffffff8381831617835250505050610848565b50565b61084482826040516024016107c2929190610cbe565b6040516020818303038152906040527f9710a9d0000000000000000000000000000000000000000000000000000000007bffffffffffffffffffffffffffffffffffffffffffffffffffffffff19166020820180517bffffffffffffffffffffffffffffffffffffffffffffffffffffffff8381831617835250505050610848565b5050565b60008151905060006a636f6e736f6c652e6c6f679050602083016000808483855afa5050505050565b82805461087d90610f02565b90600052602060002090601f01602090048101928261089f57600085556108e6565b82601f106108b857805160ff19168380011785556108e6565b828001600101855582156108e6579182015b828111156108e55782518255916020019190600101906108ca565b5b5090506108f391906108f7565b5090565b5b808211156109105760008160009055506001016108f8565b5090565b600061092761092284610d5e565b610d39565b90508281526020810184848401111561093f57600080fd5b61094a848285610ec0565b509392505050565b600082601f83011261096357600080fd5b8135610973848260208601610914565b91505092915050565b60008135905061098b8161104c565b92915050565b6000602082840312156109a357600080fd5b600082013567ffffffffffffffff8111156109bd57600080fd5b6109c984828501610952565b91505092915050565b6000602082840312156109e457600080fd5b60006109f28482850161097c565b91505092915050565b6000610a078383610a27565b60208301905092915050565b6000610a1f8383610b8a565b905092915050565b610a3081610e84565b82525050565b610a3f81610e84565b82525050565b6000610a5082610daf565b610a5a8185610dea565b9350610a6583610d8f565b8060005b83811015610a96578151610a7d88826109fb565b9750610a8883610dd0565b925050600181019050610a69565b5085935050505092915050565b6000610aae82610dba565b610ab88185610dfb565b935083602082028501610aca85610d9f565b8060005b85811015610b065784840389528151610ae78582610a13565b9450610af283610ddd565b925060208a01995050600181019050610ace565b50829750879550505050505092915050565b6000610b2382610dc5565b610b2d8185610e0c565b9350610b3d818560208601610ecf565b610b468161103b565b840191505092915050565b6000610b5c82610dc5565b610b668185610e1d565b9350610b76818560208601610ecf565b610b7f8161103b565b840191505092915050565b6000606083016000830151610ba26000860182610a27565b5060208301518482036020860152610bba8282610b18565b9150506040830151610bcf6040860182610bda565b508091505092915050565b610be381610eb6565b82525050565b610bf281610eb6565b82525050565b6000602082019050610c0d6000830184610a36565b92915050565b60006020820190508181036000830152610c2d8184610a45565b905092915050565b60006020820190508181036000830152610c4f8184610aa3565b905092915050565b60006020820190508181036000830152610c718184610b51565b905092915050565b60006060820190508181036000830152610c938186610b51565b9050610ca26020830185610a36565b8181036040830152610cb48184610b51565b9050949350505050565b60006040820190508181036000830152610cd88185610b51565b9050610ce76020830184610be9565b9392505050565b6000602082019050610d036000830184610be9565b92915050565b6000604082019050610d1e6000830185610be9565b8181036020830152610d308184610b51565b90509392505050565b6000610d43610d54565b9050610d4f8282610f34565b919050565b6000604051905090565b600067ffffffffffffffff821115610d7957610d7861100c565b5b610d828261103b565b9050602081019050919050565b6000819050602082019050919050565b6000819050602082019050919050565b600081519050919050565b600081519050919050565b600081519050919050565b6000602082019050919050565b6000602082019050919050565b600082825260208201905092915050565b600082825260208201905092915050565b600082825260208201905092915050565b600082825260208201905092915050565b6000610e3982610eb6565b9150610e4483610eb6565b9250827fffffffffffffffffffffffffffffffffffffffffffffffffffffffffffffffff03821115610e7957610e78610fae565b5b828201905092915050565b6000610e8f82610e96565b9050919050565b600073ffffffffffffffffffffffffffffffffffffffff82169050919050565b6000819050919050565b82818337600083830152505050565b60005b83811015610eed578082015181840152602081019050610ed2565b83811115610efc576000848401525b50505050565b60006002820490506001821680610f1a57607f821691505b60208210811415610f2e57610f2d610fdd565b5b50919050565b610f3d8261103b565b810181811067ffffffffffffffff82111715610f5c57610f5b61100c565b5b80604052505050565b6000610f7082610eb6565b91507fffffffffffffffffffffffffffffffffffffffffffffffffffffffffffffffff821415610fa357610fa2610fae565b5b600182019050919050565b7f4e487b7100000000000000000000000000000000000000000000000000000000600052601160045260246000fd5b7f4e487b7100000000000000000000000000000000000000000000000000000000600052602260045260246000fd5b7f4e487b7100000000000000000000000000000000000000000000000000000000600052604160045260246000fd5b6000601f19601f8301169050919050565b61105581610eb6565b811461106057600080fd5b5056fe2573206861732073656e7420616e2045544877656574207769746820746865206d6573736167653a2025735468697320697320746865206c697374206f662045544877656574206164647265737365733aa26469706673582212200ce520fc8fe2c4567fb547a767d8252c5fd81e0a4c622d127512bb7fa839034664736f6c634300080400334865792074686572652c20627920636f6e7472616374204920616d20736d617274",
  "linkReferences": {},
  "deployedLinkReferences": {}
}