{
  "_format": "hh-sol-artifact-1",
  "contractName": "EthwitterPortal",
  "sourceName": "contracts/EthwitterPortal.sol",
  "abi": [
    {
      "inputs": [],
      "stateMutability": "payable",
      "type": "constructor"
    },
    {
      "anonymous": false,
      "inputs": [
        {
          "indexed": true,
          "internalType": "address",
          "name": "from",
          "type": "address"
        },
        {
          "indexed": false,
          "internalType": "uint256",
          "name": "timestamp",
          "type": "uint256"
        },
        {
          "indexed": false,
          "internalType": "string",
          "name": "message",
          "type": "string"
        }
      ],
      "name": "NewEthweet",
      "type": "event"
    },
    {
      "inputs": [
        {
          "internalType": "string",
          "name": "_message",
          "type": "string"
        }
      ],
      "name": "ethweet",
      "outputs": [],
      "stateMutability": "nonpayable",
      "type": "function"
    },
    {
      "inputs": [
        {
          "internalType": "uint256",
          "name": "",
          "type": "uint256"
        }
      ],
      "name": "ethweetAddresses",
      "outputs": [
        {
          "internalType": "address",
          "name": "",
          "type": "address"
        }
      ],
      "stateMutability": "view",
      "type": "function"
    },
    {
      "inputs": [],
      "name": "getAllEthweets",
      "outputs": [
        {
          "components": [
            {
              "internalType": "address",
              "name": "sender",
              "type": "address"
            },
            {
              "internalType": "string",
              "name": "message",
              "type": "string"
            },
            {
              "internalType": "uint256",
              "name": "timestamp",
              "type": "uint256"
            }
          ],
          "internalType": "struct EthwitterPortal.Ethweet[]",
          "name": "",
          "type": "tuple[]"
        }
      ],
      "stateMutability": "view",
      "type": "function"
    },
    {
      "inputs": [],
      "name": "getEthweetAddresses",
      "outputs": [
        {
          "internalType": "address[]",
          "name": "",
          "type": "address[]"
        }
      ],
      "stateMutability": "view",
      "type": "function"
    },
    {
      "inputs": [],
      "name": "getTotalEthweets",
      "outputs": [
        {
          "internalType": "uint256",
          "name": "",
          "type": "uint256"
        }
      ],
      "stateMutability": "view",
      "type": "function"
    },
    {
      "inputs": [
        {
          "internalType": "address",
          "name": "",
          "type": "address"
        }
      ],
      "name": "lastWavedAt",
      "outputs": [
        {
          "internalType": "uint256",
          "name": "",
          "type": "uint256"
        }
      ],
      "stateMutability": "view",
      "type": "function"
    }
  ],
  "bytecode": "0x60806040526200003360405180606001604052806021815260200162001a13602191396200005b60201b620008b11760201c565b60644442620000439190620001a8565b6200004f919062000245565b600181905550620002ec565b620000fb8160405160240162000072919062000168565b6040516020818303038152906040527f41304fac000000000000000000000000000000000000000000000000000000007bffffffffffffffffffffffffffffffffffffffffffffffffffffffff19166020820180517bffffffffffffffffffffffffffffffffffffffffffffffffffffffff8381831617835250505050620000fe60201b60201c565b50565b60008151905060006a636f6e736f6c652e6c6f679050602083016000808483855afa5050505050565b600062000134826200018c565b62000140818562000197565b9350620001528185602086016200020f565b6200015d81620002db565b840191505092915050565b6000602082019050818103600083015262000184818462000127565b905092915050565b600081519050919050565b600082825260208201905092915050565b6000620001b58262000205565b9150620001c28362000205565b9250827fffffffffffffffffffffffffffffffffffffffffffffffffffffffffffffffff03821115620001fa57620001f96200027d565b5b828201905092915050565b6000819050919050565b60005b838110156200022f57808201518184015260208101905062000212565b838111156200023f576000848401525b50505050565b6000620002528262000205565b91506200025f8362000205565b925082620002725762000271620002ac565b5b828206905092915050565b7f4e487b7100000000000000000000000000000000000000000000000000000000600052601160045260246000fd5b7f4e487b7100000000000000000000000000000000000000000000000000000000600052601260045260246000fd5b6000601f19601f8301169050919050565b61171780620002fc6000396000f3fe608060405234801561001057600080fd5b50600436106100625760003560e01c806347ecb79c1461006757806355c2789d14610085578063a42a4663146100a1578063c8ef52ac146100d1578063dcefa05014610101578063f6d86b3c1461011f575b600080fd5b61006f61013d565b60405161007c9190611086565b60405180910390f35b61009f600480360381019061009a9190610d41565b61028e565b005b6100bb60048036038101906100b69190610d18565b6106cf565b6040516100c891906111cf565b60405180910390f35b6100eb60048036038101906100e69190610d82565b6106e7565b6040516100f89190611049565b60405180910390f35b610109610726565b6040516101169190611064565b60405180910390f35b610127610866565b60405161013491906111cf565b60405180910390f35b60606003805480602002602001604051908101604052809291908181526020016000905b8282101561028557838290600052602060002090600302016040518060600160405290816000820160009054906101000a900473ffffffffffffffffffffffffffffffffffffffff1673ffffffffffffffffffffffffffffffffffffffff1673ffffffffffffffffffffffffffffffffffffffff1681526020016001820180546101ea906113ee565b80601f0160208091040260200160405190810160405280929190818152602001828054610216906113ee565b80156102635780601f1061023857610100808354040283529160200191610263565b820191906000526020600020905b81548152906001019060200180831161024657829003601f168201915b5050505050815260200160028201548152505081526020019060010190610161565b50505050905090565b42601e600460003373ffffffffffffffffffffffffffffffffffffffff1673ffffffffffffffffffffffffffffffffffffffff168152602001908152602001600020546102db919061131a565b1061031b576040517f08c379a00000000000000000000000000000000000000000000000000000000081526004016103129061118f565b60405180910390fd5b42600460003373ffffffffffffffffffffffffffffffffffffffff1673ffffffffffffffffffffffffffffffffffffffff168152602001908152602001600020819055506001600080828254610371919061131a565b925050819055506002339080600181540180825580915050600190039060005260206000200160009091909190916101000a81548173ffffffffffffffffffffffffffffffffffffffff021916908373ffffffffffffffffffffffffffffffffffffffff1602179055506103fe6040518060600160405280602b8152602001611691602b9139338361094a565b600360405180606001604052803373ffffffffffffffffffffffffffffffffffffffff16815260200183815260200142815250908060018154018082558091505060019003906000526020600020906003020160009091909190915060008201518160000160006101000a81548173ffffffffffffffffffffffffffffffffffffffff021916908373ffffffffffffffffffffffffffffffffffffffff16021790555060208201518160010190805190602001906104bd929190610be3565b506040820151816002015550503373ffffffffffffffffffffffffffffffffffffffff167fb7a7092d0fcee7d36e81accafa9f30cb7c17ac197ce9de213e2384e32e3122c342836040516105129291906111ea565b60405180910390a26064600154424461052b919061131a565b610535919061131a565b61053f919061149a565b6001819055506105866040518060400160405280601681526020017f52616e646f6d20232067656e6572617465643a202564000000000000000000008152506001546109e9565b6005600154116106cc576105cf6040518060400160405280600781526020017f257320776f6e210000000000000000000000000000000000000000000000000081525033610a85565b60006509184e72a00090504781111561061d576040517f08c379a00000000000000000000000000000000000000000000000000000000081526004016106149061116f565b60405180910390fd5b60003373ffffffffffffffffffffffffffffffffffffffff168260405161064390611034565b60006040518083038185875af1925050503d8060008114610680576040519150601f19603f3d011682016040523d82523d6000602084013e610685565b606091505b50509050806106c9576040517f08c379a00000000000000000000000000000000000000000000000000000000081526004016106c0906111af565b60405180910390fd5b50505b50565b60046020528060005260406000206000915090505481565b600281815481106106f757600080fd5b906000526020600020016000915054906101000a900473ffffffffffffffffffffffffffffffffffffffff1681565b60606107496040518060600160405280602681526020016116bc602691396108b1565b60005b6002805490508110156107d9576107c660028281548110610796577f4e487b7100000000000000000000000000000000000000000000000000000000600052603260045260246000fd5b9060005260206000200160009054906101000a900473ffffffffffffffffffffffffffffffffffffffff16610b21565b80806107d190611451565b91505061074c565b50600280548060200260200160405190810160405280929190818152602001828054801561085c57602002820191906000526020600020905b8160009054906101000a900473ffffffffffffffffffffffffffffffffffffffff1673ffffffffffffffffffffffffffffffffffffffff1681526020019060010190808311610812575b5050505050905090565b60006108a96040518060400160405280601a81526020017f5765206861766520256420746f74616c204554487765657473210000000000008152506000546109e9565b600054905090565b610947816040516024016108c591906110a8565b6040516020818303038152906040527f41304fac000000000000000000000000000000000000000000000000000000007bffffffffffffffffffffffffffffffffffffffffffffffffffffffff19166020820180517bffffffffffffffffffffffffffffffffffffffffffffffffffffffff8381831617835250505050610bba565b50565b6109e4838383604051602401610962939291906110fa565b6040516020818303038152906040527fe0e9ad4f000000000000000000000000000000000000000000000000000000007bffffffffffffffffffffffffffffffffffffffffffffffffffffffff19166020820180517bffffffffffffffffffffffffffffffffffffffffffffffffffffffff8381831617835250505050610bba565b505050565b610a8182826040516024016109ff92919061113f565b6040516020818303038152906040527f9710a9d0000000000000000000000000000000000000000000000000000000007bffffffffffffffffffffffffffffffffffffffffffffffffffffffff19166020820180517bffffffffffffffffffffffffffffffffffffffffffffffffffffffff8381831617835250505050610bba565b5050565b610b1d8282604051602401610a9b9291906110ca565b6040516020818303038152906040527f319af333000000000000000000000000000000000000000000000000000000007bffffffffffffffffffffffffffffffffffffffffffffffffffffffff19166020820180517bffffffffffffffffffffffffffffffffffffffffffffffffffffffff8381831617835250505050610bba565b5050565b610bb781604051602401610b359190611049565b6040516020818303038152906040527f2c2ecbc2000000000000000000000000000000000000000000000000000000007bffffffffffffffffffffffffffffffffffffffffffffffffffffffff19166020820180517bffffffffffffffffffffffffffffffffffffffffffffffffffffffff8381831617835250505050610bba565b50565b60008151905060006a636f6e736f6c652e6c6f679050602083016000808483855afa5050505050565b828054610bef906113ee565b90600052602060002090601f016020900481019282610c115760008555610c58565b82601f10610c2a57805160ff1916838001178555610c58565b82800160010185558215610c58579182015b82811115610c57578251825591602001919060010190610c3c565b5b509050610c659190610c69565b5090565b5b80821115610c82576000816000905550600101610c6a565b5090565b6000610c99610c948461123f565b61121a565b905082815260208101848484011115610cb157600080fd5b610cbc8482856113ac565b509392505050565b600081359050610cd381611662565b92915050565b600082601f830112610cea57600080fd5b8135610cfa848260208601610c86565b91505092915050565b600081359050610d1281611679565b92915050565b600060208284031215610d2a57600080fd5b6000610d3884828501610cc4565b91505092915050565b600060208284031215610d5357600080fd5b600082013567ffffffffffffffff811115610d6d57600080fd5b610d7984828501610cd9565b91505092915050565b600060208284031215610d9457600080fd5b6000610da284828501610d03565b91505092915050565b6000610db78383610dd7565b60208301905092915050565b6000610dcf8383610fc6565b905092915050565b610de081611370565b82525050565b610def81611370565b82525050565b6000610e0082611290565b610e0a81856112cb565b9350610e1583611270565b8060005b83811015610e46578151610e2d8882610dab565b9750610e38836112b1565b925050600181019050610e19565b5085935050505092915050565b6000610e5e8261129b565b610e6881856112dc565b935083602082028501610e7a85611280565b8060005b85811015610eb65784840389528151610e978582610dc3565b9450610ea2836112be565b925060208a01995050600181019050610e7e565b50829750879550505050505092915050565b6000610ed3826112a6565b610edd81856112f8565b9350610eed8185602086016113bb565b610ef681611587565b840191505092915050565b6000610f0c826112a6565b610f168185611309565b9350610f268185602086016113bb565b610f2f81611587565b840191505092915050565b6000610f47603483611309565b9150610f5282611598565b604082019050919050565b6000610f6a600f83611309565b9150610f75826115e7565b602082019050919050565b6000610f8d602783611309565b9150610f9882611610565b604082019050919050565b6000610fb06000836112ed565b9150610fbb8261165f565b600082019050919050565b6000606083016000830151610fde6000860182610dd7565b5060208301518482036020860152610ff68282610ec8565b915050604083015161100b6040860182611016565b508091505092915050565b61101f816113a2565b82525050565b61102e816113a2565b82525050565b600061103f82610fa3565b9150819050919050565b600060208201905061105e6000830184610de6565b92915050565b6000602082019050818103600083015261107e8184610df5565b905092915050565b600060208201905081810360008301526110a08184610e53565b905092915050565b600060208201905081810360008301526110c28184610f01565b905092915050565b600060408201905081810360008301526110e48185610f01565b90506110f36020830184610de6565b9392505050565b600060608201905081810360008301526111148186610f01565b90506111236020830185610de6565b81810360408301526111358184610f01565b9050949350505050565b600060408201905081810360008301526111598185610f01565b90506111686020830184611025565b9392505050565b6000602082019050818103600083015261118881610f3a565b9050919050565b600060208201905081810360008301526111a881610f5d565b9050919050565b600060208201905081810360008301526111c881610f80565b9050919050565b60006020820190506111e46000830184611025565b92915050565b60006040820190506111ff6000830185611025565b81810360208301526112118184610f01565b90509392505050565b6000611224611235565b90506112308282611420565b919050565b6000604051905090565b600067ffffffffffffffff82111561125a57611259611558565b5b61126382611587565b9050602081019050919050565b6000819050602082019050919050565b6000819050602082019050919050565b600081519050919050565b600081519050919050565b600081519050919050565b6000602082019050919050565b6000602082019050919050565b600082825260208201905092915050565b600082825260208201905092915050565b600081905092915050565b600082825260208201905092915050565b600082825260208201905092915050565b6000611325826113a2565b9150611330836113a2565b9250827fffffffffffffffffffffffffffffffffffffffffffffffffffffffffffffffff03821115611365576113646114cb565b5b828201905092915050565b600061137b82611382565b9050919050565b600073ffffffffffffffffffffffffffffffffffffffff82169050919050565b6000819050919050565b82818337600083830152505050565b60005b838110156113d95780820151818401526020810190506113be565b838111156113e8576000848401525b50505050565b6000600282049050600182168061140657607f821691505b6020821081141561141a57611419611529565b5b50919050565b61142982611587565b810181811067ffffffffffffffff8211171561144857611447611558565b5b80604052505050565b600061145c826113a2565b91507fffffffffffffffffffffffffffffffffffffffffffffffffffffffffffffffff82141561148f5761148e6114cb565b5b600182019050919050565b60006114a5826113a2565b91506114b0836113a2565b9250826114c0576114bf6114fa565b5b828206905092915050565b7f4e487b7100000000000000000000000000000000000000000000000000000000600052601160045260246000fd5b7f4e487b7100000000000000000000000000000000000000000000000000000000600052601260045260246000fd5b7f4e487b7100000000000000000000000000000000000000000000000000000000600052602260045260246000fd5b7f4e487b7100000000000000000000000000000000000000000000000000000000600052604160045260246000fd5b6000601f19601f8301169050919050565b7f547279696e6720746f207769746864726177206d6f7265206d6f6e657920746860008201527f616e2074686520636f6e7472616374206861732e000000000000000000000000602082015250565b7f57616974203330207365636f6e64730000000000000000000000000000000000600082015250565b7f4661696c656420746f207769746864726177206d6f6e65792066726f6d20636f60008201527f6e74726163742e00000000000000000000000000000000000000000000000000602082015250565b50565b61166b81611370565b811461167657600080fd5b50565b611682816113a2565b811461168d57600080fd5b5056fe2573206861732073656e7420616e2045544877656574207769746820746865206d6573736167653a2025735468697320697320746865206c697374206f662045544877656574206164647265737365733aa2646970667358221220e3ed754ac778492f93810e4d060885c8391a557558782fb13d480430803106a464736f6c634300080400334865792074686572652c20627920636f6e7472616374204920616d20736d617274",
  "linkReferences": {},
  "deployedLinkReferences": {}
}