{
  "_format": "hh-sol-artifact-1",
  "contractName": "EthwitterPortal",
  "sourceName": "contracts/EthwitterPortal.sol",
  "abi": [
    {
      "inputs": [],
      "stateMutability": "payable",
      "type": "constructor"
    },
    {
      "anonymous": false,
      "inputs": [
        {
          "indexed": true,
          "internalType": "address",
          "name": "from",
          "type": "address"
        },
        {
          "indexed": false,
          "internalType": "uint256",
          "name": "timestamp",
          "type": "uint256"
        },
        {
          "indexed": false,
          "internalType": "string",
          "name": "message",
          "type": "string"
        }
      ],
      "name": "NewEthweet",
      "type": "event"
    },
    {
      "inputs": [
        {
          "internalType": "string",
          "name": "_message",
          "type": "string"
        }
      ],
      "name": "ethweet",
      "outputs": [],
      "stateMutability": "nonpayable",
      "type": "function"
    },
    {
      "inputs": [
        {
          "internalType": "uint256",
          "name": "",
          "type": "uint256"
        }
      ],
      "name": "ethweetAddresses",
      "outputs": [
        {
          "internalType": "address",
          "name": "",
          "type": "address"
        }
      ],
      "stateMutability": "view",
      "type": "function"
    },
    {
      "inputs": [],
      "name": "getAllEthweets",
      "outputs": [
        {
          "components": [
            {
              "internalType": "address",
              "name": "sender",
              "type": "address"
            },
            {
              "internalType": "string",
              "name": "message",
              "type": "string"
            },
            {
              "internalType": "uint256",
              "name": "timestamp",
              "type": "uint256"
            }
          ],
          "internalType": "struct EthwitterPortal.Ethweet[]",
          "name": "",
          "type": "tuple[]"
        }
      ],
      "stateMutability": "view",
      "type": "function"
    },
    {
      "inputs": [],
      "name": "getEthweetAddresses",
      "outputs": [
        {
          "internalType": "address[]",
          "name": "",
          "type": "address[]"
        }
      ],
      "stateMutability": "view",
      "type": "function"
    },
    {
      "inputs": [],
      "name": "getTotalEthweets",
      "outputs": [
        {
          "internalType": "uint256",
          "name": "",
          "type": "uint256"
        }
      ],
      "stateMutability": "view",
      "type": "function"
    }
  ],
  "bytecode": "0x6080604052620000336040518060600160405280602181526020016200152d602191396200003960201b620006d71760201c565b620001cd565b620000d98160405160240162000050919062000146565b6040516020818303038152906040527f41304fac000000000000000000000000000000000000000000000000000000007bffffffffffffffffffffffffffffffffffffffffffffffffffffffff19166020820180517bffffffffffffffffffffffffffffffffffffffffffffffffffffffff8381831617835250505050620000dc60201b60201c565b50565b60008151905060006a636f6e736f6c652e6c6f679050602083016000808483855afa5050505050565b600062000112826200016a565b6200011e818562000175565b93506200013081856020860162000186565b6200013b81620001bc565b840191505092915050565b6000602082019050818103600083015262000162818462000105565b905092915050565b600081519050919050565b600082825260208201905092915050565b60005b83811015620001a657808201518184015260208101905062000189565b83811115620001b6576000848401525b50505050565b6000601f19601f8301169050919050565b61135080620001dd6000396000f3fe608060405234801561001057600080fd5b50600436106100575760003560e01c806347ecb79c1461005c57806355c2789d1461007a578063c8ef52ac14610096578063dcefa050146100c6578063f6d86b3c146100e4575b600080fd5b610064610102565b6040516100719190610daf565b60405180910390f35b610094600480360381019061008f9190610a8d565b610253565b005b6100b060048036038101906100ab9190610ace565b61050d565b6040516100bd9190610d72565b60405180910390f35b6100ce61054c565b6040516100db9190610d8d565b60405180910390f35b6100ec61068c565b6040516100f99190610ea8565b60405180910390f35b60606002805480602002602001604051908101604052809291908181526020016000905b8282101561024a57838290600052602060002090600302016040518060600160405290816000820160009054906101000a900473ffffffffffffffffffffffffffffffffffffffff1673ffffffffffffffffffffffffffffffffffffffff1673ffffffffffffffffffffffffffffffffffffffff1681526020016001820180546101af906110c7565b80601f01602080910402602001604051908101604052809291908181526020018280546101db906110c7565b80156102285780601f106101fd57610100808354040283529160200191610228565b820191906000526020600020905b81548152906001019060200180831161020b57829003601f168201915b5050505050815260200160028201548152505081526020019060010190610126565b50505050905090565b60016000808282546102659190610ff3565b925050819055506001339080600181540180825580915050600190039060005260206000200160009091909190916101000a81548173ffffffffffffffffffffffffffffffffffffffff021916908373ffffffffffffffffffffffffffffffffffffffff1602179055506102f26040518060600160405280602b81526020016112ca602b91393383610770565b600260405180606001604052803373ffffffffffffffffffffffffffffffffffffffff16815260200183815260200142815250908060018154018082558091505060019003906000526020600020906003020160009091909190915060008201518160000160006101000a81548173ffffffffffffffffffffffffffffffffffffffff021916908373ffffffffffffffffffffffffffffffffffffffff16021790555060208201518160010190805190602001906103b192919061096d565b506040820151816002015550503373ffffffffffffffffffffffffffffffffffffffff167fb7a7092d0fcee7d36e81accafa9f30cb7c17ac197ce9de213e2384e32e3122c34283604051610406929190610ec3565b60405180910390a26000655af3107a400090504781111561045c576040517f08c379a000000000000000000000000000000000000000000000000000000000815260040161045390610e68565b60405180910390fd5b60003373ffffffffffffffffffffffffffffffffffffffff168260405161048290610d5d565b60006040518083038185875af1925050503d80600081146104bf576040519150601f19603f3d011682016040523d82523d6000602084013e6104c4565b606091505b5050905080610508576040517f08c379a00000000000000000000000000000000000000000000000000000000081526004016104ff90610e88565b60405180910390fd5b505050565b6001818154811061051d57600080fd5b906000526020600020016000915054906101000a900473ffffffffffffffffffffffffffffffffffffffff1681565b606061056f6040518060600160405280602681526020016112f5602691396106d7565b60005b6001805490508110156105ff576105ec600182815481106105bc577f4e487b7100000000000000000000000000000000000000000000000000000000600052603260045260246000fd5b9060005260206000200160009054906101000a900473ffffffffffffffffffffffffffffffffffffffff1661080f565b80806105f79061112a565b915050610572565b50600180548060200260200160405190810160405280929190818152602001828054801561068257602002820191906000526020600020905b8160009054906101000a900473ffffffffffffffffffffffffffffffffffffffff1673ffffffffffffffffffffffffffffffffffffffff1681526020019060010190808311610638575b5050505050905090565b60006106cf6040518060400160405280601a81526020017f5765206861766520256420746f74616c204554487765657473210000000000008152506000546108a8565b600054905090565b61076d816040516024016106eb9190610dd1565b6040516020818303038152906040527f41304fac000000000000000000000000000000000000000000000000000000007bffffffffffffffffffffffffffffffffffffffffffffffffffffffff19166020820180517bffffffffffffffffffffffffffffffffffffffffffffffffffffffff8381831617835250505050610944565b50565b61080a83838360405160240161078893929190610df3565b6040516020818303038152906040527fe0e9ad4f000000000000000000000000000000000000000000000000000000007bffffffffffffffffffffffffffffffffffffffffffffffffffffffff19166020820180517bffffffffffffffffffffffffffffffffffffffffffffffffffffffff8381831617835250505050610944565b505050565b6108a5816040516024016108239190610d72565b6040516020818303038152906040527f2c2ecbc2000000000000000000000000000000000000000000000000000000007bffffffffffffffffffffffffffffffffffffffffffffffffffffffff19166020820180517bffffffffffffffffffffffffffffffffffffffffffffffffffffffff8381831617835250505050610944565b50565b61094082826040516024016108be929190610e38565b6040516020818303038152906040527f9710a9d0000000000000000000000000000000000000000000000000000000007bffffffffffffffffffffffffffffffffffffffffffffffffffffffff19166020820180517bffffffffffffffffffffffffffffffffffffffffffffffffffffffff8381831617835250505050610944565b5050565b60008151905060006a636f6e736f6c652e6c6f679050602083016000808483855afa5050505050565b828054610979906110c7565b90600052602060002090601f01602090048101928261099b57600085556109e2565b82601f106109b457805160ff19168380011785556109e2565b828001600101855582156109e2579182015b828111156109e15782518255916020019190600101906109c6565b5b5090506109ef91906109f3565b5090565b5b80821115610a0c5760008160009055506001016109f4565b5090565b6000610a23610a1e84610f18565b610ef3565b905082815260208101848484011115610a3b57600080fd5b610a46848285611085565b509392505050565b600082601f830112610a5f57600080fd5b8135610a6f848260208601610a10565b91505092915050565b600081359050610a87816112b2565b92915050565b600060208284031215610a9f57600080fd5b600082013567ffffffffffffffff811115610ab957600080fd5b610ac584828501610a4e565b91505092915050565b600060208284031215610ae057600080fd5b6000610aee84828501610a78565b91505092915050565b6000610b038383610b23565b60208301905092915050565b6000610b1b8383610cef565b905092915050565b610b2c81611049565b82525050565b610b3b81611049565b82525050565b6000610b4c82610f69565b610b568185610fa4565b9350610b6183610f49565b8060005b83811015610b92578151610b798882610af7565b9750610b8483610f8a565b925050600181019050610b65565b5085935050505092915050565b6000610baa82610f74565b610bb48185610fb5565b935083602082028501610bc685610f59565b8060005b85811015610c025784840389528151610be38582610b0f565b9450610bee83610f97565b925060208a01995050600181019050610bca565b50829750879550505050505092915050565b6000610c1f82610f7f565b610c298185610fd1565b9350610c39818560208601611094565b610c4281611200565b840191505092915050565b6000610c5882610f7f565b610c628185610fe2565b9350610c72818560208601611094565b610c7b81611200565b840191505092915050565b6000610c93603483610fe2565b9150610c9e82611211565b604082019050919050565b6000610cb6602783610fe2565b9150610cc182611260565b604082019050919050565b6000610cd9600083610fc6565b9150610ce4826112af565b600082019050919050565b6000606083016000830151610d076000860182610b23565b5060208301518482036020860152610d1f8282610c14565b9150506040830151610d346040860182610d3f565b508091505092915050565b610d488161107b565b82525050565b610d578161107b565b82525050565b6000610d6882610ccc565b9150819050919050565b6000602082019050610d876000830184610b32565b92915050565b60006020820190508181036000830152610da78184610b41565b905092915050565b60006020820190508181036000830152610dc98184610b9f565b905092915050565b60006020820190508181036000830152610deb8184610c4d565b905092915050565b60006060820190508181036000830152610e0d8186610c4d565b9050610e1c6020830185610b32565b8181036040830152610e2e8184610c4d565b9050949350505050565b60006040820190508181036000830152610e528185610c4d565b9050610e616020830184610d4e565b9392505050565b60006020820190508181036000830152610e8181610c86565b9050919050565b60006020820190508181036000830152610ea181610ca9565b9050919050565b6000602082019050610ebd6000830184610d4e565b92915050565b6000604082019050610ed86000830185610d4e565b8181036020830152610eea8184610c4d565b90509392505050565b6000610efd610f0e565b9050610f0982826110f9565b919050565b6000604051905090565b600067ffffffffffffffff821115610f3357610f326111d1565b5b610f3c82611200565b9050602081019050919050565b6000819050602082019050919050565b6000819050602082019050919050565b600081519050919050565b600081519050919050565b600081519050919050565b6000602082019050919050565b6000602082019050919050565b600082825260208201905092915050565b600082825260208201905092915050565b600081905092915050565b600082825260208201905092915050565b600082825260208201905092915050565b6000610ffe8261107b565b91506110098361107b565b9250827fffffffffffffffffffffffffffffffffffffffffffffffffffffffffffffffff0382111561103e5761103d611173565b5b828201905092915050565b60006110548261105b565b9050919050565b600073ffffffffffffffffffffffffffffffffffffffff82169050919050565b6000819050919050565b82818337600083830152505050565b60005b838110156110b2578082015181840152602081019050611097565b838111156110c1576000848401525b50505050565b600060028204905060018216806110df57607f821691505b602082108114156110f3576110f26111a2565b5b50919050565b61110282611200565b810181811067ffffffffffffffff82111715611121576111206111d1565b5b80604052505050565b60006111358261107b565b91507fffffffffffffffffffffffffffffffffffffffffffffffffffffffffffffffff82141561116857611167611173565b5b600182019050919050565b7f4e487b7100000000000000000000000000000000000000000000000000000000600052601160045260246000fd5b7f4e487b7100000000000000000000000000000000000000000000000000000000600052602260045260246000fd5b7f4e487b7100000000000000000000000000000000000000000000000000000000600052604160045260246000fd5b6000601f19601f8301169050919050565b7f547279696e6720746f207769746864726177206d6f7265206d6f6e657920746860008201527f616e2074686520636f6e7472616374206861732e000000000000000000000000602082015250565b7f4661696c656420746f207769746864726177206d6f6e65792066726f6d20636f60008201527f6e74726163742e00000000000000000000000000000000000000000000000000602082015250565b50565b6112bb8161107b565b81146112c657600080fd5b5056fe2573206861732073656e7420616e2045544877656574207769746820746865206d6573736167653a2025735468697320697320746865206c697374206f662045544877656574206164647265737365733aa26469706673582212207c54f62308f8e66e501136f307e39eedf842cb0958f1b26d7a3ba2dfe46397a064736f6c634300080400334865792074686572652c20627920636f6e7472616374204920616d20736d617274",
  "linkReferences": {},
  "deployedLinkReferences": {}
}